{
  "contractName": "MediChain",
  "abi": [
    {
      "anonymous": false,
      "inputs": [
        {
          "indexed": true,
          "internalType": "address",
          "name": "previousOwner",
          "type": "address"
        },
        {
          "indexed": true,
          "internalType": "address",
          "name": "newOwner",
          "type": "address"
        }
      ],
      "name": "OwnershipTransferred",
      "type": "event"
    },
    {
      "anonymous": false,
      "inputs": [
        {
          "indexed": false,
          "internalType": "string",
          "name": "message",
          "type": "string"
        }
      ],
      "name": "doctorAddedToPatient",
      "type": "event"
    },
    {
      "anonymous": false,
      "inputs": [
        {
          "indexed": false,
          "internalType": "uint256",
          "name": "_patientId",
          "type": "uint256"
        }
      ],
      "name": "patientRegistered",
      "type": "event"
    },
    {
      "anonymous": false,
      "inputs": [
        {
          "indexed": false,
          "internalType": "string",
          "name": "message",
          "type": "string"
        }
      ],
      "name": "recordAdded",
      "type": "event"
    },
    {
      "anonymous": false,
      "inputs": [
        {
          "indexed": false,
          "internalType": "string[]",
          "name": "hashes",
          "type": "string[]"
        }
      ],
      "name": "sendIpfsHashes",
      "type": "event"
    },
    {
      "inputs": [
        {
          "internalType": "uint256",
          "name": "",
          "type": "uint256"
        }
      ],
      "name": "idToPatient",
      "outputs": [
        {
          "internalType": "uint256",
          "name": "pid",
          "type": "uint256"
        },
        {
          "internalType": "string",
          "name": "patientName",
          "type": "string"
        },
        {
          "internalType": "string",
          "name": "patientSex",
          "type": "string"
        },
        {
          "internalType": "address",
          "name": "patientAddress",
          "type": "address"
        }
      ],
      "stateMutability": "view",
      "type": "function",
      "constant": true
    },
    {
      "inputs": [],
      "name": "owner",
      "outputs": [
        {
          "internalType": "address",
          "name": "",
          "type": "address"
        }
      ],
      "stateMutability": "view",
      "type": "function",
      "constant": true
    },
    {
      "inputs": [],
      "name": "patientCount",
      "outputs": [
        {
          "internalType": "uint256",
          "name": "",
          "type": "uint256"
        }
      ],
      "stateMutability": "view",
      "type": "function",
      "constant": true
    },
    {
      "inputs": [],
      "name": "renounceOwnership",
      "outputs": [],
      "stateMutability": "nonpayable",
      "type": "function"
    },
    {
      "inputs": [
        {
          "internalType": "address",
          "name": "newOwner",
          "type": "address"
        }
      ],
      "name": "transferOwnership",
      "outputs": [],
      "stateMutability": "nonpayable",
      "type": "function"
    },
    {
      "inputs": [
        {
          "internalType": "address",
          "name": "_docAddress",
          "type": "address"
        }
      ],
      "name": "addDoctor",
      "outputs": [],
      "stateMutability": "nonpayable",
      "type": "function"
    },
    {
      "inputs": [
        {
          "internalType": "string",
          "name": "_patientName",
          "type": "string"
        },
        {
          "internalType": "string",
          "name": "_patientSex",
          "type": "string"
        }
      ],
      "name": "registerPatient",
      "outputs": [
        {
          "internalType": "uint256",
          "name": "",
          "type": "uint256"
        }
      ],
      "stateMutability": "nonpayable",
      "type": "function"
    },
    {
      "inputs": [
        {
          "internalType": "uint256",
          "name": "pid",
          "type": "uint256"
        },
        {
          "internalType": "string",
          "name": "_ipfsHash",
          "type": "string"
        }
      ],
      "name": "addRecords",
      "outputs": [],
      "stateMutability": "nonpayable",
      "type": "function"
    },
    {
      "inputs": [
        {
          "internalType": "uint256",
          "name": "pid",
          "type": "uint256"
        },
        {
          "internalType": "address",
          "name": "_docAddress",
          "type": "address"
        }
      ],
      "name": "addDoctorToPatient",
      "outputs": [],
      "stateMutability": "nonpayable",
      "type": "function"
    },
    {
      "inputs": [
        {
          "internalType": "uint256",
          "name": "pid",
          "type": "uint256"
        }
      ],
      "name": "viewRecords",
      "outputs": [
        {
          "internalType": "string[]",
          "name": "",
          "type": "string[]"
        }
      ],
      "stateMutability": "nonpayable",
      "type": "function"
    },
    {
      "inputs": [
        {
          "internalType": "uint256",
          "name": "pid",
          "type": "uint256"
        }
      ],
      "name": "viewRecordsDoc",
      "outputs": [
        {
          "internalType": "string[]",
          "name": "",
          "type": "string[]"
        }
      ],
      "stateMutability": "nonpayable",
      "type": "function"
    }
  ],
  "bytecode": "0x6080604052600060015534801561001557600080fd5b5060006100266100c960201b60201c565b9050806000806101000a81548173ffffffffffffffffffffffffffffffffffffffff021916908373ffffffffffffffffffffffffffffffffffffffff1602179055508073ffffffffffffffffffffffffffffffffffffffff16600073ffffffffffffffffffffffffffffffffffffffff167f8be0079c531659141344cd1fd0a4f28419497f9722a3daafe3b4186f6b6457e060405160405180910390a3506100d1565b600033905090565b612391806100e06000396000f3fe608060405234801561001057600080fd5b50600436106100a95760003560e01c80638c045284116100715780638c045284146101505780638da5cb5b14610180578063a0303c411461019e578063d5b7a68a146101bc578063f2fde38b146101d8578063f39f3f0e146101f4576100a9565b80633dc25c59146100ae5780634780468f146100ca578063715018a6146100e65780637373bc3e146100f057806380911fa414610120575b600080fd5b6100c860048036038101906100c39190611d01565b610227565b005b6100e460048036038101906100df9190611c07565b61035c565b005b6100ee610400565b005b61010a60048036038101906101059190611c9c565b610555565b604051610117919061206f565b60405180910390f35b61013a60048036038101906101359190611c30565b610d26565b6040516101479190612171565b60405180910390f35b61016a60048036038101906101659190611c9c565b610eb6565b604051610177919061206f565b60405180910390f35b6101886112e2565b6040516101959190612054565b60405180910390f35b6101a661130b565b6040516101b39190612171565b60405180910390f35b6101d660048036038101906101d19190611cc5565b611311565b005b6101f260048036038101906101ed9190611c07565b61146d565b005b61020e60048036038101906102099190611c9c565b611631565b60405161021e949392919061218c565b60405180910390f35b813373ffffffffffffffffffffffffffffffffffffffff166003600083815260200190815260200160002060030160009054906101000a900473ffffffffffffffffffffffffffffffffffffffff1673ffffffffffffffffffffffffffffffffffffffff16146102cc576040517f08c379a00000000000000000000000000000000000000000000000000000000081526004016102c3906120d1565b60405180910390fd5b600060036000858152602001908152602001600020905080600401839080600181540180825580915050600190039060005260206000200160009091909190915090805190602001906103209291906118f7565b507ffe620bc934605c29eaad60c10c2b0a05598a653a91a4c87e25362d3aa7eae68860405161034e906120f1565b60405180910390a150505050565b6103646117b1565b73ffffffffffffffffffffffffffffffffffffffff166000809054906101000a900473ffffffffffffffffffffffffffffffffffffffff1673ffffffffffffffffffffffffffffffffffffffff16146103f2576040517f08c379a00000000000000000000000000000000000000000000000000000000081526004016103e990612131565b60405180910390fd5b6103fd6002826117b9565b50565b6104086117b1565b73ffffffffffffffffffffffffffffffffffffffff166000809054906101000a900473ffffffffffffffffffffffffffffffffffffffff1673ffffffffffffffffffffffffffffffffffffffff1614610496576040517f08c379a000000000000000000000000000000000000000000000000000000000815260040161048d90612131565b60405180910390fd5b600073ffffffffffffffffffffffffffffffffffffffff166000809054906101000a900473ffffffffffffffffffffffffffffffffffffffff1673ffffffffffffffffffffffffffffffffffffffff167f8be0079c531659141344cd1fd0a4f28419497f9722a3daafe3b4186f6b6457e060405160405180910390a360008060006101000a81548173ffffffffffffffffffffffffffffffffffffffff021916908373ffffffffffffffffffffffffffffffffffffffff160217905550565b606081610563600233611865565b6105a2576040517f08c379a000000000000000000000000000000000000000000000000000000000815260040161059990612151565b60405180910390fd5b6105aa611977565b600360008381526020019081526020016000206040518060c001604052908160008201548152602001600182018054600181600116156101000203166002900480601f01602080910402602001604051908101604052809291908181526020018280546001816001161561010002031660029004801561066b5780601f106106405761010080835404028352916020019161066b565b820191906000526020600020905b81548152906001019060200180831161064e57829003601f168201915b50505050508152602001600282018054600181600116156101000203166002900480601f01602080910402602001604051908101604052809291908181526020018280546001816001161561010002031660029004801561070d5780601f106106e25761010080835404028352916020019161070d565b820191906000526020600020905b8154815290600101906020018083116106f057829003601f168201915b505050505081526020016003820160009054906101000a900473ffffffffffffffffffffffffffffffffffffffff1673ffffffffffffffffffffffffffffffffffffffff1673ffffffffffffffffffffffffffffffffffffffff16815260200160048201805480602002602001604051908101604052809291908181526020016000905b8282101561084d578382906000526020600020018054600181600116156101000203166002900480601f0160208091040260200160405190810160405280929190818152602001828054600181600116156101000203166002900480156108395780601f1061080e57610100808354040283529160200191610839565b820191906000526020600020905b81548152906001019060200180831161081c57829003601f168201915b505050505081526020019060010190610791565b505050508152602001600582018054806020026020016040519081016040528092919081815260200182805480156108da57602002820191906000526020600020905b8160009054906101000a900473ffffffffffffffffffffffffffffffffffffffff1673ffffffffffffffffffffffffffffffffffffffff1681526020019060010190808311610890575b5050505050815250509050600080905060008090505b8260a001515181101561095e573373ffffffffffffffffffffffffffffffffffffffff168360a00151828151811061092457fe5b602002602001015173ffffffffffffffffffffffffffffffffffffffff161415610951576001915061095e565b80806001019150506108f0565b508061099f576040517f08c379a000000000000000000000000000000000000000000000000000000000815260040161099690612091565b60405180910390fd5b6109a7611977565b600360008781526020019081526020016000206040518060c001604052908160008201548152602001600182018054600181600116156101000203166002900480601f016020809104026020016040519081016040528092919081815260200182805460018160011615610100020316600290048015610a685780601f10610a3d57610100808354040283529160200191610a68565b820191906000526020600020905b815481529060010190602001808311610a4b57829003601f168201915b50505050508152602001600282018054600181600116156101000203166002900480601f016020809104026020016040519081016040528092919081815260200182805460018160011615610100020316600290048015610b0a5780601f10610adf57610100808354040283529160200191610b0a565b820191906000526020600020905b815481529060010190602001808311610aed57829003601f168201915b505050505081526020016003820160009054906101000a900473ffffffffffffffffffffffffffffffffffffffff1673ffffffffffffffffffffffffffffffffffffffff1673ffffffffffffffffffffffffffffffffffffffff16815260200160048201805480602002602001604051908101604052809291908181526020016000905b82821015610c4a578382906000526020600020018054600181600116156101000203166002900480601f016020809104026020016040519081016040528092919081815260200182805460018160011615610100020316600290048015610c365780601f10610c0b57610100808354040283529160200191610c36565b820191906000526020600020905b815481529060010190602001808311610c1957829003601f168201915b505050505081526020019060010190610b8e565b50505050815260200160058201805480602002602001604051908101604052809291908181526020018280548015610cd757602002820191906000526020600020905b8160009054906101000a900473ffffffffffffffffffffffffffffffffffffffff1673ffffffffffffffffffffffffffffffffffffffff1681526020019060010190808311610c8d575b50505050508152505090507f5f3e90273ddb95916aee93475604b0ce5f4ba1121c511631c4d3ca2698cc59b78160800151604051610d15919061206f565b60405180910390a150505050919050565b6000610d30611977565b60015481600001818152505083816020018190525082816040018190525033816060019073ffffffffffffffffffffffffffffffffffffffff16908173ffffffffffffffffffffffffffffffffffffffff168152505080600360006001548152602001908152602001600020600082015181600001556020820151816001019080519060200190610dc29291906118f7565b506040820151816002019080519060200190610ddf9291906118f7565b5060608201518160030160006101000a81548173ffffffffffffffffffffffffffffffffffffffff021916908373ffffffffffffffffffffffffffffffffffffffff1602179055506080820151816004019080519060200190610e439291906119c3565b5060a0820151816005019080519060200190610e60929190611a23565b509050507f97a88e9b8b274762d65e2ac0206ababe9d1ae5bde620477ed37ba349f7920456600154604051610e959190612171565b60405180910390a16001600081548092919060010191905055505092915050565b6060813373ffffffffffffffffffffffffffffffffffffffff166003600083815260200190815260200160002060030160009054906101000a900473ffffffffffffffffffffffffffffffffffffffff1673ffffffffffffffffffffffffffffffffffffffff1614610f5d576040517f08c379a0000000000000000000000000000000000000000000000000000000008152600401610f54906120d1565b60405180910390fd5b610f65611977565b600360008581526020019081526020016000206040518060c001604052908160008201548152602001600182018054600181600116156101000203166002900480601f0160208091040260200160405190810160405280929190818152602001828054600181600116156101000203166002900480156110265780601f10610ffb57610100808354040283529160200191611026565b820191906000526020600020905b81548152906001019060200180831161100957829003601f168201915b50505050508152602001600282018054600181600116156101000203166002900480601f0160208091040260200160405190810160405280929190818152602001828054600181600116156101000203166002900480156110c85780601f1061109d576101008083540402835291602001916110c8565b820191906000526020600020905b8154815290600101906020018083116110ab57829003601f168201915b505050505081526020016003820160009054906101000a900473ffffffffffffffffffffffffffffffffffffffff1673ffffffffffffffffffffffffffffffffffffffff1673ffffffffffffffffffffffffffffffffffffffff16815260200160048201805480602002602001604051908101604052809291908181526020016000905b82821015611208578382906000526020600020018054600181600116156101000203166002900480601f0160208091040260200160405190810160405280929190818152602001828054600181600116156101000203166002900480156111f45780601f106111c9576101008083540402835291602001916111f4565b820191906000526020600020905b8154815290600101906020018083116111d757829003601f168201915b50505050508152602001906001019061114c565b5050505081526020016005820180548060200260200160405190810160405280929190818152602001828054801561129557602002820191906000526020600020905b8160009054906101000a900473ffffffffffffffffffffffffffffffffffffffff1673ffffffffffffffffffffffffffffffffffffffff168152602001906001019080831161124b575b50505050508152505090507f5f3e90273ddb95916aee93475604b0ce5f4ba1121c511631c4d3ca2698cc59b781608001516040516112d3919061206f565b60405180910390a15050919050565b60008060009054906101000a900473ffffffffffffffffffffffffffffffffffffffff16905090565b60015481565b813373ffffffffffffffffffffffffffffffffffffffff166003600083815260200190815260200160002060030160009054906101000a900473ffffffffffffffffffffffffffffffffffffffff1673ffffffffffffffffffffffffffffffffffffffff16146113b6576040517f08c379a00000000000000000000000000000000000000000000000000000000081526004016113ad906120d1565b60405180910390fd5b600060036000858152602001908152602001600020905080600501839080600181540180825580915050600190039060005260206000200160009091909190916101000a81548173ffffffffffffffffffffffffffffffffffffffff021916908373ffffffffffffffffffffffffffffffffffffffff1602179055507fd908eed969dc2472401fdde95d7c8b09aba1250d7fb5ee7294282b603d00efd460405161145f90612111565b60405180910390a150505050565b6114756117b1565b73ffffffffffffffffffffffffffffffffffffffff166000809054906101000a900473ffffffffffffffffffffffffffffffffffffffff1673ffffffffffffffffffffffffffffffffffffffff1614611503576040517f08c379a00000000000000000000000000000000000000000000000000000000081526004016114fa90612131565b60405180910390fd5b600073ffffffffffffffffffffffffffffffffffffffff168173ffffffffffffffffffffffffffffffffffffffff161415611573576040517f08c379a000000000000000000000000000000000000000000000000000000000815260040161156a906120b1565b60405180910390fd5b8073ffffffffffffffffffffffffffffffffffffffff166000809054906101000a900473ffffffffffffffffffffffffffffffffffffffff1673ffffffffffffffffffffffffffffffffffffffff167f8be0079c531659141344cd1fd0a4f28419497f9722a3daafe3b4186f6b6457e060405160405180910390a3806000806101000a81548173ffffffffffffffffffffffffffffffffffffffff021916908373ffffffffffffffffffffffffffffffffffffffff16021790555050565b6003602052806000526040600020600091509050806000015490806001018054600181600116156101000203166002900480601f0160208091040260200160405190810160405280929190818152602001828054600181600116156101000203166002900480156116e35780601f106116b8576101008083540402835291602001916116e3565b820191906000526020600020905b8154815290600101906020018083116116c657829003601f168201915b505050505090806002018054600181600116156101000203166002900480601f0160208091040260200160405190810160405280929190818152602001828054600181600116156101000203166002900480156117815780601f1061175657610100808354040283529160200191611781565b820191906000526020600020905b81548152906001019060200180831161176457829003601f168201915b5050505050908060030160009054906101000a900473ffffffffffffffffffffffffffffffffffffffff16905084565b600033905090565b600073ffffffffffffffffffffffffffffffffffffffff168173ffffffffffffffffffffffffffffffffffffffff1614156117f357600080fd5b6117fd8282611865565b1561180757600080fd5b60018260000160008373ffffffffffffffffffffffffffffffffffffffff1673ffffffffffffffffffffffffffffffffffffffff16815260200190815260200160002060006101000a81548160ff0219169083151502179055505050565b60008073ffffffffffffffffffffffffffffffffffffffff168273ffffffffffffffffffffffffffffffffffffffff1614156118a057600080fd5b8260000160008373ffffffffffffffffffffffffffffffffffffffff1673ffffffffffffffffffffffffffffffffffffffff16815260200190815260200160002060009054906101000a900460ff16905092915050565b828054600181600116156101000203166002900490600052602060002090601f016020900481019282601f1061193857805160ff1916838001178555611966565b82800160010185558215611966579182015b8281111561196557825182559160200191906001019061194a565b5b5090506119739190611aad565b5090565b6040518060c00160405280600081526020016060815260200160608152602001600073ffffffffffffffffffffffffffffffffffffffff16815260200160608152602001606081525090565b828054828255906000526020600020908101928215611a12579160200282015b82811115611a11578251829080519060200190611a019291906118f7565b50916020019190600101906119e3565b5b509050611a1f9190611ad2565b5090565b828054828255906000526020600020908101928215611a9c579160200282015b82811115611a9b5782518260006101000a81548173ffffffffffffffffffffffffffffffffffffffff021916908373ffffffffffffffffffffffffffffffffffffffff16021790555091602001919060010190611a43565b5b509050611aa99190611afe565b5090565b611acf91905b80821115611acb576000816000905550600101611ab3565b5090565b90565b611afb91905b80821115611af75760008181611aee9190611b41565b50600101611ad8565b5090565b90565b611b3e91905b80821115611b3a57600081816101000a81549073ffffffffffffffffffffffffffffffffffffffff021916905550600101611b04565b5090565b90565b50805460018160011615610100020316600290046000825580601f10611b675750611b86565b601f016020900490600052602060002090810190611b859190611aad565b5b50565b600081359050611b988161232d565b92915050565b600082601f830112611baf57600080fd5b8135611bc2611bbd8261220c565b6121df565b91508082526020830160208301858383011115611bde57600080fd5b611be98382846122da565b50505092915050565b600081359050611c0181612344565b92915050565b600060208284031215611c1957600080fd5b6000611c2784828501611b89565b91505092915050565b60008060408385031215611c4357600080fd5b600083013567ffffffffffffffff811115611c5d57600080fd5b611c6985828601611b9e565b925050602083013567ffffffffffffffff811115611c8657600080fd5b611c9285828601611b9e565b9150509250929050565b600060208284031215611cae57600080fd5b6000611cbc84828501611bf2565b91505092915050565b60008060408385031215611cd857600080fd5b6000611ce685828601611bf2565b9250506020611cf785828601611b89565b9150509250929050565b60008060408385031215611d1457600080fd5b6000611d2285828601611bf2565b925050602083013567ffffffffffffffff811115611d3f57600080fd5b611d4b85828601611b9e565b9150509250929050565b6000611d618383611ded565b905092915050565b611d728161229e565b82525050565b6000611d8382612248565b611d8d818561226b565b935083602082028501611d9f85612238565b8060005b85811015611ddb5784840389528151611dbc8582611d55565b9450611dc78361225e565b925060208a01995050600181019050611da3565b50829750879550505050505092915050565b6000611df882612253565b611e02818561227c565b9350611e128185602086016122e9565b611e1b8161231c565b840191505092915050565b6000611e3182612253565b611e3b818561228d565b9350611e4b8185602086016122e9565b611e548161231c565b840191505092915050565b6000611e6c60158361228d565b91507f596f7520646f6e277420686176652061636365737300000000000000000000006000830152602082019050919050565b6000611eac60268361228d565b91507f4f776e61626c653a206e6577206f776e657220697320746865207a65726f206160008301527f64647265737300000000000000000000000000000000000000000000000000006020830152604082019050919050565b6000611f1260168361228d565b91507f596f7520617265206e6f7420617574686f7269736564000000000000000000006000830152602082019050919050565b6000611f52600c8361228d565b91507f5265636f726420616464656400000000000000000000000000000000000000006000830152602082019050919050565b6000611f9260178361228d565b91507f446f63746f7220616464656420746f2070617469656e740000000000000000006000830152602082019050919050565b6000611fd260208361228d565b91507f4f776e61626c653a2063616c6c6572206973206e6f7420746865206f776e65726000830152602082019050919050565b600061201260148361228d565b91507f596f7520617265206e6f74206120646f63746f720000000000000000000000006000830152602082019050919050565b61204e816122d0565b82525050565b60006020820190506120696000830184611d69565b92915050565b600060208201905081810360008301526120898184611d78565b905092915050565b600060208201905081810360008301526120aa81611e5f565b9050919050565b600060208201905081810360008301526120ca81611e9f565b9050919050565b600060208201905081810360008301526120ea81611f05565b9050919050565b6000602082019050818103600083015261210a81611f45565b9050919050565b6000602082019050818103600083015261212a81611f85565b9050919050565b6000602082019050818103600083015261214a81611fc5565b9050919050565b6000602082019050818103600083015261216a81612005565b9050919050565b60006020820190506121866000830184612045565b92915050565b60006080820190506121a16000830187612045565b81810360208301526121b38186611e26565b905081810360408301526121c78185611e26565b90506121d66060830184611d69565b95945050505050565b6000604051905081810181811067ffffffffffffffff8211171561220257600080fd5b8060405250919050565b600067ffffffffffffffff82111561222357600080fd5b601f19601f8301169050602081019050919050565b6000819050602082019050919050565b600081519050919050565b600081519050919050565b6000602082019050919050565b600082825260208201905092915050565b600082825260208201905092915050565b600082825260208201905092915050565b60006122a9826122b0565b9050919050565b600073ffffffffffffffffffffffffffffffffffffffff82169050919050565b6000819050919050565b82818337600083830152505050565b60005b838110156123075780820151818401526020810190506122ec565b83811115612316576000848401525b50505050565b6000601f19601f8301169050919050565b6123368161229e565b811461234157600080fd5b50565b61234d816122d0565b811461235857600080fd5b5056fea2646970667358221220daf0925477a185f2363eb91f1dc9df912d8492553dd48ec3aa1950bd71e63f0364736f6c63430006080033",
  "source": "pragma solidity ^0.6.0;\npragma experimental ABIEncoderV2;\n\nimport \"@openzeppelin/contracts/access/Ownable.sol\";\nimport \"./Roles.sol\";\n\n\ncontract MediChain is Ownable {\n    // instance of Patient\n    struct Patient {\n        uint256 pid;\n        string patientName;\n        string patientSex;\n        address patientAddress;\n        string[] patientRecords; // The ipfs hashes of all the documents related to patient's condition\n        address[] medicalViewers; // The addresses of all the medical people who can access the patient details\n    }\n\n    uint256 public patientCount = 0;\n\n    // Roles involved, later add medical representatives and other medical bodies\n    Roles.Role private doctors;\n\n    // datastructure mapping id to patent(like hashmap)\n    mapping(uint256 => Patient) public idToPatient;\n\n    modifier onlyDoctor(uint256 pid) {\n        require(Roles.has(doctors, msg.sender), \"You are not a doctor\"); // checks if the sender of the transaction is really a doctor\n\n        // checks if the doctor has permission to access the records\n        Patient memory patient = idToPatient[pid];\n        bool access = false;\n        for (uint256 i = 0; i < patient.medicalViewers.length; i++) {\n            if (patient.medicalViewers[i] == msg.sender) {\n                access = true;\n                break;\n            }\n        }\n        require(access, \"You don't have access\");\n        _;\n    }\n\n    modifier onlyPatient(uint256 pid) {\n        // checks if the sender of transaction is the owner of patient with id (pid)\n        require(\n            idToPatient[pid].patientAddress == msg.sender,\n            \"You are not authorised\"\n        );\n        _;\n    }\n\n    // events to be emitted\n    event patientRegistered(uint256 _patientId);\n    event recordAdded(string message);\n    event doctorAddedToPatient(string message);\n    event sendIpfsHashes(string[] hashes);\n\n    // adding doctors to the contract instance, only owner of the contract can access this function. The owner is the address which deployed the contract\n    function addDoctor(address _docAddress) public onlyOwner {\n        Roles.add(doctors, _docAddress);\n    }\n\n    // Registering patient instance\n    function registerPatient(\n        string memory _patientName,\n        string memory _patientSex\n    ) public returns (uint256) {\n        Patient memory patient;\n        patient.pid = patientCount;\n        patient.patientName = _patientName;\n        patient.patientSex = _patientSex;\n        patient.patientAddress = msg.sender;\n\n        idToPatient[patientCount] = patient;\n\n        // emitting event with patient id\n        emit patientRegistered(patientCount);\n        patientCount++;\n    }\n\n    // Allowing patients to add their ipfshash of medical records\n    function addRecords(uint256 pid, string memory _ipfsHash)\n        public\n        onlyPatient(pid)\n    {\n        Patient storage patient = idToPatient[pid];\n        patient.patientRecords.push(_ipfsHash);\n\n        emit recordAdded(\"Record added\");\n    }\n\n    // Allowing patients to add the address of their doctors, so that these doctors can later access their records\n    function addDoctorToPatient(uint256 pid, address _docAddress)\n        public\n        onlyPatient(pid)\n    {\n        Patient storage patient = idToPatient[pid];\n        patient.medicalViewers.push(_docAddress);\n\n        emit doctorAddedToPatient(\"Doctor added to patient\");\n    }\n\n    function viewRecords(uint256 pid)\n        public\n        onlyPatient(pid)\n        returns (string[] memory)\n    {\n        // only doctor added by patient can access this function\n        Patient memory patient = idToPatient[pid];\n        emit sendIpfsHashes(patient.patientRecords);\n    }\n\n    function viewRecordsDoc(uint256 pid)\n        public\n        onlyDoctor(pid)\n        returns (string[] memory)\n    {\n        // only doctor added by patient can access this function\n        Patient memory patient = idToPatient[pid];\n        emit sendIpfsHashes(patient.patientRecords);\n    }\n}\n",
  "sourcePath": "/home/asish/Desktop/medichain/contracts/MediChain.sol",
  "compiler": {
    "name": "solc",
    "version": "0.6.8+commit.0bbfe453.Emscripten.clang"
  },
  "schemaVersion": "3.0.23",
  "updatedAt": "2020-05-26T16:05:00.998Z",
  "networkType": "ethereum",
  "devdoc": {
    "methods": {
      "owner()": {
        "details": "Returns the address of the current owner."
      },
      "renounceOwnership()": {
        "details": "Leaves the contract without owner. It will not be possible to call `onlyOwner` functions anymore. Can only be called by the current owner.     * NOTE: Renouncing ownership will leave the contract without an owner, thereby removing any functionality that is only available to the owner."
      },
      "transferOwnership(address)": {
        "details": "Transfers ownership of the contract to a new account (`newOwner`). Can only be called by the current owner."
      }
    }
  },
  "userdoc": {
    "methods": {}
  }
}