{
  "contractName": "MediChain",
  "abi": [
    {
      "anonymous": false,
      "inputs": [
        {
          "indexed": true,
          "internalType": "address",
          "name": "previousOwner",
          "type": "address"
        },
        {
          "indexed": true,
          "internalType": "address",
          "name": "newOwner",
          "type": "address"
        }
      ],
      "name": "OwnershipTransferred",
      "type": "event"
    },
    {
      "anonymous": false,
      "inputs": [
        {
          "indexed": false,
          "internalType": "string",
          "name": "message",
          "type": "string"
        }
      ],
      "name": "doctorAddedToPatient",
      "type": "event"
    },
    {
      "anonymous": false,
      "inputs": [
        {
          "indexed": false,
          "internalType": "uint256",
          "name": "_patientId",
          "type": "uint256"
        }
      ],
      "name": "patientRegistered",
      "type": "event"
    },
    {
      "anonymous": false,
      "inputs": [
        {
          "indexed": false,
          "internalType": "string",
          "name": "message",
          "type": "string"
        }
      ],
      "name": "recordAdded",
      "type": "event"
    },
    {
      "anonymous": false,
      "inputs": [
        {
          "indexed": false,
          "internalType": "string[]",
          "name": "hashes",
          "type": "string[]"
        }
      ],
      "name": "sendIpfsHashes",
      "type": "event"
    },
    {
      "inputs": [
        {
          "internalType": "uint256",
          "name": "",
          "type": "uint256"
        }
      ],
      "name": "idToPatient",
      "outputs": [
        {
          "internalType": "uint256",
          "name": "pid",
          "type": "uint256"
        },
        {
          "internalType": "string",
          "name": "patientName",
          "type": "string"
        },
        {
          "internalType": "string",
          "name": "patientSex",
          "type": "string"
        },
        {
          "internalType": "address",
          "name": "patientAddress",
          "type": "address"
        }
      ],
      "stateMutability": "view",
      "type": "function",
      "constant": true
    },
    {
      "inputs": [],
      "name": "owner",
      "outputs": [
        {
          "internalType": "address",
          "name": "",
          "type": "address"
        }
      ],
      "stateMutability": "view",
      "type": "function",
      "constant": true
    },
    {
      "inputs": [],
      "name": "patientCount",
      "outputs": [
        {
          "internalType": "uint256",
          "name": "",
          "type": "uint256"
        }
      ],
      "stateMutability": "view",
      "type": "function",
      "constant": true
    },
    {
      "inputs": [],
      "name": "renounceOwnership",
      "outputs": [],
      "stateMutability": "nonpayable",
      "type": "function"
    },
    {
      "inputs": [
        {
          "internalType": "address",
          "name": "newOwner",
          "type": "address"
        }
      ],
      "name": "transferOwnership",
      "outputs": [],
      "stateMutability": "nonpayable",
      "type": "function"
    },
    {
      "inputs": [
        {
          "internalType": "address",
          "name": "_docAddress",
          "type": "address"
        }
      ],
      "name": "addDoctor",
      "outputs": [],
      "stateMutability": "nonpayable",
      "type": "function"
    },
    {
      "inputs": [
        {
          "internalType": "string",
          "name": "_patientName",
          "type": "string"
        },
        {
          "internalType": "string",
          "name": "_patientSex",
          "type": "string"
        }
      ],
      "name": "registerPatient",
      "outputs": [],
      "stateMutability": "nonpayable",
      "type": "function"
    },
    {
      "inputs": [
        {
          "internalType": "uint256",
          "name": "pid",
          "type": "uint256"
        },
        {
          "internalType": "string",
          "name": "_ipfsHash",
          "type": "string"
        }
      ],
      "name": "addRecords",
      "outputs": [],
      "stateMutability": "nonpayable",
      "type": "function"
    },
    {
      "inputs": [
        {
          "internalType": "uint256",
          "name": "pid",
          "type": "uint256"
        },
        {
          "internalType": "address",
          "name": "_docAddress",
          "type": "address"
        }
      ],
      "name": "addDoctorToPatient",
      "outputs": [],
      "stateMutability": "nonpayable",
      "type": "function"
    },
    {
      "inputs": [
        {
          "internalType": "uint256",
          "name": "pid",
          "type": "uint256"
        }
      ],
      "name": "viewRecords",
      "outputs": [
        {
          "internalType": "string[]",
          "name": "",
          "type": "string[]"
        }
      ],
      "stateMutability": "view",
      "type": "function",
      "constant": true
    }
  ],
  "bytecode": "0x6080604052600060015534801561001557600080fd5b5060006100266100c960201b60201c565b9050806000806101000a81548173ffffffffffffffffffffffffffffffffffffffff021916908373ffffffffffffffffffffffffffffffffffffffff1602179055508073ffffffffffffffffffffffffffffffffffffffff16600073ffffffffffffffffffffffffffffffffffffffff167f8be0079c531659141344cd1fd0a4f28419497f9722a3daafe3b4186f6b6457e060405160405180910390a3506100d1565b600033905090565b611ede806100e06000396000f3fe608060405234801561001057600080fd5b506004361061009e5760003560e01c80638da5cb5b116100665780638da5cb5b14610131578063a0303c411461014f578063d5b7a68a1461016d578063f2fde38b14610189578063f39f3f0e146101a55761009e565b80633dc25c59146100a35780634780468f146100bf578063715018a6146100db57806380911fa4146100e55780638c04528414610101575b600080fd5b6100bd60048036038101906100b8919061184e565b6101d8565b005b6100d960048036038101906100d49190611754565b61030d565b005b6100e36103b1565b005b6100ff60048036038101906100fa919061177d565b610506565b005b61011b600480360381019061011691906117e9565b610692565b6040516101289190611bbc565b60405180910390f35b610139610e2f565b6040516101469190611ba1565b60405180910390f35b610157610e58565b6040516101649190611cbe565b60405180910390f35b61018760048036038101906101829190611812565b610e5e565b005b6101a3600480360381019061019e9190611754565b610fba565b005b6101bf60048036038101906101ba91906117e9565b61117e565b6040516101cf9493929190611cd9565b60405180910390f35b813373ffffffffffffffffffffffffffffffffffffffff166003600083815260200190815260200160002060030160009054906101000a900473ffffffffffffffffffffffffffffffffffffffff1673ffffffffffffffffffffffffffffffffffffffff161461027d576040517f08c379a000000000000000000000000000000000000000000000000000000000815260040161027490611c1e565b60405180910390fd5b600060036000858152602001908152602001600020905080600401839080600181540180825580915050600190039060005260206000200160009091909190915090805190602001906102d1929190611444565b507ffe620bc934605c29eaad60c10c2b0a05598a653a91a4c87e25362d3aa7eae6886040516102ff90611c3e565b60405180910390a150505050565b6103156112fe565b73ffffffffffffffffffffffffffffffffffffffff166000809054906101000a900473ffffffffffffffffffffffffffffffffffffffff1673ffffffffffffffffffffffffffffffffffffffff16146103a3576040517f08c379a000000000000000000000000000000000000000000000000000000000815260040161039a90611c7e565b60405180910390fd5b6103ae600282611306565b50565b6103b96112fe565b73ffffffffffffffffffffffffffffffffffffffff166000809054906101000a900473ffffffffffffffffffffffffffffffffffffffff1673ffffffffffffffffffffffffffffffffffffffff1614610447576040517f08c379a000000000000000000000000000000000000000000000000000000000815260040161043e90611c7e565b60405180910390fd5b600073ffffffffffffffffffffffffffffffffffffffff166000809054906101000a900473ffffffffffffffffffffffffffffffffffffffff1673ffffffffffffffffffffffffffffffffffffffff167f8be0079c531659141344cd1fd0a4f28419497f9722a3daafe3b4186f6b6457e060405160405180910390a360008060006101000a81548173ffffffffffffffffffffffffffffffffffffffff021916908373ffffffffffffffffffffffffffffffffffffffff160217905550565b61050e6114c4565b60015481600001818152505082816020018190525081816040018190525033816060019073ffffffffffffffffffffffffffffffffffffffff16908173ffffffffffffffffffffffffffffffffffffffff1681525050806003600060015481526020019081526020016000206000820151816000015560208201518160010190805190602001906105a0929190611444565b5060408201518160020190805190602001906105bd929190611444565b5060608201518160030160006101000a81548173ffffffffffffffffffffffffffffffffffffffff021916908373ffffffffffffffffffffffffffffffffffffffff1602179055506080820151816004019080519060200190610621929190611510565b5060a082015181600501908051906020019061063e929190611570565b509050507f97a88e9b8b274762d65e2ac0206ababe9d1ae5bde620477ed37ba349f79204566001546040516106739190611cbe565b60405180910390a1600160008154809291906001019190505550505050565b6060816106a06002336113b2565b6106df576040517f08c379a00000000000000000000000000000000000000000000000000000000081526004016106d690611c9e565b60405180910390fd5b6106e76114c4565b600360008381526020019081526020016000206040518060c001604052908160008201548152602001600182018054600181600116156101000203166002900480601f0160208091040260200160405190810160405280929190818152602001828054600181600116156101000203166002900480156107a85780601f1061077d576101008083540402835291602001916107a8565b820191906000526020600020905b81548152906001019060200180831161078b57829003601f168201915b50505050508152602001600282018054600181600116156101000203166002900480601f01602080910402602001604051908101604052809291908181526020018280546001816001161561010002031660029004801561084a5780601f1061081f5761010080835404028352916020019161084a565b820191906000526020600020905b81548152906001019060200180831161082d57829003601f168201915b505050505081526020016003820160009054906101000a900473ffffffffffffffffffffffffffffffffffffffff1673ffffffffffffffffffffffffffffffffffffffff1673ffffffffffffffffffffffffffffffffffffffff16815260200160048201805480602002602001604051908101604052809291908181526020016000905b8282101561098a578382906000526020600020018054600181600116156101000203166002900480601f0160208091040260200160405190810160405280929190818152602001828054600181600116156101000203166002900480156109765780601f1061094b57610100808354040283529160200191610976565b820191906000526020600020905b81548152906001019060200180831161095957829003601f168201915b5050505050815260200190600101906108ce565b50505050815260200160058201805480602002602001604051908101604052809291908181526020018280548015610a1757602002820191906000526020600020905b8160009054906101000a900473ffffffffffffffffffffffffffffffffffffffff1673ffffffffffffffffffffffffffffffffffffffff16815260200190600101908083116109cd575b5050505050815250509050600080905060008090505b8260a0015151811015610a9b573373ffffffffffffffffffffffffffffffffffffffff168360a001518281518110610a6157fe5b602002602001015173ffffffffffffffffffffffffffffffffffffffff161415610a8e5760019150610a9b565b8080600101915050610a2d565b5080610adc576040517f08c379a0000000000000000000000000000000000000000000000000000000008152600401610ad390611bde565b60405180910390fd5b610ae46114c4565b600360008781526020019081526020016000206040518060c001604052908160008201548152602001600182018054600181600116156101000203166002900480601f016020809104026020016040519081016040528092919081815260200182805460018160011615610100020316600290048015610ba55780601f10610b7a57610100808354040283529160200191610ba5565b820191906000526020600020905b815481529060010190602001808311610b8857829003601f168201915b50505050508152602001600282018054600181600116156101000203166002900480601f016020809104026020016040519081016040528092919081815260200182805460018160011615610100020316600290048015610c475780601f10610c1c57610100808354040283529160200191610c47565b820191906000526020600020905b815481529060010190602001808311610c2a57829003601f168201915b505050505081526020016003820160009054906101000a900473ffffffffffffffffffffffffffffffffffffffff1673ffffffffffffffffffffffffffffffffffffffff1673ffffffffffffffffffffffffffffffffffffffff16815260200160048201805480602002602001604051908101604052809291908181526020016000905b82821015610d87578382906000526020600020018054600181600116156101000203166002900480601f016020809104026020016040519081016040528092919081815260200182805460018160011615610100020316600290048015610d735780601f10610d4857610100808354040283529160200191610d73565b820191906000526020600020905b815481529060010190602001808311610d5657829003601f168201915b505050505081526020019060010190610ccb565b50505050815260200160058201805480602002602001604051908101604052809291908181526020018280548015610e1457602002820191906000526020600020905b8160009054906101000a900473ffffffffffffffffffffffffffffffffffffffff1673ffffffffffffffffffffffffffffffffffffffff1681526020019060010190808311610dca575b50505050508152505090508060800151945050505050919050565b60008060009054906101000a900473ffffffffffffffffffffffffffffffffffffffff16905090565b60015481565b813373ffffffffffffffffffffffffffffffffffffffff166003600083815260200190815260200160002060030160009054906101000a900473ffffffffffffffffffffffffffffffffffffffff1673ffffffffffffffffffffffffffffffffffffffff1614610f03576040517f08c379a0000000000000000000000000000000000000000000000000000000008152600401610efa90611c1e565b60405180910390fd5b600060036000858152602001908152602001600020905080600501839080600181540180825580915050600190039060005260206000200160009091909190916101000a81548173ffffffffffffffffffffffffffffffffffffffff021916908373ffffffffffffffffffffffffffffffffffffffff1602179055507fd908eed969dc2472401fdde95d7c8b09aba1250d7fb5ee7294282b603d00efd4604051610fac90611c5e565b60405180910390a150505050565b610fc26112fe565b73ffffffffffffffffffffffffffffffffffffffff166000809054906101000a900473ffffffffffffffffffffffffffffffffffffffff1673ffffffffffffffffffffffffffffffffffffffff1614611050576040517f08c379a000000000000000000000000000000000000000000000000000000000815260040161104790611c7e565b60405180910390fd5b600073ffffffffffffffffffffffffffffffffffffffff168173ffffffffffffffffffffffffffffffffffffffff1614156110c0576040517f08c379a00000000000000000000000000000000000000000000000000000000081526004016110b790611bfe565b60405180910390fd5b8073ffffffffffffffffffffffffffffffffffffffff166000809054906101000a900473ffffffffffffffffffffffffffffffffffffffff1673ffffffffffffffffffffffffffffffffffffffff167f8be0079c531659141344cd1fd0a4f28419497f9722a3daafe3b4186f6b6457e060405160405180910390a3806000806101000a81548173ffffffffffffffffffffffffffffffffffffffff021916908373ffffffffffffffffffffffffffffffffffffffff16021790555050565b6003602052806000526040600020600091509050806000015490806001018054600181600116156101000203166002900480601f0160208091040260200160405190810160405280929190818152602001828054600181600116156101000203166002900480156112305780601f1061120557610100808354040283529160200191611230565b820191906000526020600020905b81548152906001019060200180831161121357829003601f168201915b505050505090806002018054600181600116156101000203166002900480601f0160208091040260200160405190810160405280929190818152602001828054600181600116156101000203166002900480156112ce5780601f106112a3576101008083540402835291602001916112ce565b820191906000526020600020905b8154815290600101906020018083116112b157829003601f168201915b5050505050908060030160009054906101000a900473ffffffffffffffffffffffffffffffffffffffff16905084565b600033905090565b600073ffffffffffffffffffffffffffffffffffffffff168173ffffffffffffffffffffffffffffffffffffffff16141561134057600080fd5b61134a82826113b2565b1561135457600080fd5b60018260000160008373ffffffffffffffffffffffffffffffffffffffff1673ffffffffffffffffffffffffffffffffffffffff16815260200190815260200160002060006101000a81548160ff0219169083151502179055505050565b60008073ffffffffffffffffffffffffffffffffffffffff168273ffffffffffffffffffffffffffffffffffffffff1614156113ed57600080fd5b8260000160008373ffffffffffffffffffffffffffffffffffffffff1673ffffffffffffffffffffffffffffffffffffffff16815260200190815260200160002060009054906101000a900460ff16905092915050565b828054600181600116156101000203166002900490600052602060002090601f016020900481019282601f1061148557805160ff19168380011785556114b3565b828001600101855582156114b3579182015b828111156114b2578251825591602001919060010190611497565b5b5090506114c091906115fa565b5090565b6040518060c00160405280600081526020016060815260200160608152602001600073ffffffffffffffffffffffffffffffffffffffff16815260200160608152602001606081525090565b82805482825590600052602060002090810192821561155f579160200282015b8281111561155e57825182908051906020019061154e929190611444565b5091602001919060010190611530565b5b50905061156c919061161f565b5090565b8280548282559060005260206000209081019282156115e9579160200282015b828111156115e85782518260006101000a81548173ffffffffffffffffffffffffffffffffffffffff021916908373ffffffffffffffffffffffffffffffffffffffff16021790555091602001919060010190611590565b5b5090506115f6919061164b565b5090565b61161c91905b80821115611618576000816000905550600101611600565b5090565b90565b61164891905b80821115611644576000818161163b919061168e565b50600101611625565b5090565b90565b61168b91905b8082111561168757600081816101000a81549073ffffffffffffffffffffffffffffffffffffffff021916905550600101611651565b5090565b90565b50805460018160011615610100020316600290046000825580601f106116b457506116d3565b601f0160209004906000526020600020908101906116d291906115fa565b5b50565b6000813590506116e581611e7a565b92915050565b600082601f8301126116fc57600080fd5b813561170f61170a82611d59565b611d2c565b9150808252602083016020830185838301111561172b57600080fd5b611736838284611e27565b50505092915050565b60008135905061174e81611e91565b92915050565b60006020828403121561176657600080fd5b6000611774848285016116d6565b91505092915050565b6000806040838503121561179057600080fd5b600083013567ffffffffffffffff8111156117aa57600080fd5b6117b6858286016116eb565b925050602083013567ffffffffffffffff8111156117d357600080fd5b6117df858286016116eb565b9150509250929050565b6000602082840312156117fb57600080fd5b60006118098482850161173f565b91505092915050565b6000806040838503121561182557600080fd5b60006118338582860161173f565b9250506020611844858286016116d6565b9150509250929050565b6000806040838503121561186157600080fd5b600061186f8582860161173f565b925050602083013567ffffffffffffffff81111561188c57600080fd5b611898858286016116eb565b9150509250929050565b60006118ae838361193a565b905092915050565b6118bf81611deb565b82525050565b60006118d082611d95565b6118da8185611db8565b9350836020820285016118ec85611d85565b8060005b85811015611928578484038952815161190985826118a2565b945061191483611dab565b925060208a019950506001810190506118f0565b50829750879550505050505092915050565b600061194582611da0565b61194f8185611dc9565b935061195f818560208601611e36565b61196881611e69565b840191505092915050565b600061197e82611da0565b6119888185611dda565b9350611998818560208601611e36565b6119a181611e69565b840191505092915050565b60006119b9601583611dda565b91507f596f7520646f6e277420686176652061636365737300000000000000000000006000830152602082019050919050565b60006119f9602683611dda565b91507f4f776e61626c653a206e6577206f776e657220697320746865207a65726f206160008301527f64647265737300000000000000000000000000000000000000000000000000006020830152604082019050919050565b6000611a5f601683611dda565b91507f596f7520617265206e6f7420617574686f7269736564000000000000000000006000830152602082019050919050565b6000611a9f600c83611dda565b91507f5265636f726420616464656400000000000000000000000000000000000000006000830152602082019050919050565b6000611adf601783611dda565b91507f446f63746f7220616464656420746f2070617469656e740000000000000000006000830152602082019050919050565b6000611b1f602083611dda565b91507f4f776e61626c653a2063616c6c6572206973206e6f7420746865206f776e65726000830152602082019050919050565b6000611b5f601483611dda565b91507f596f7520617265206e6f74206120646f63746f720000000000000000000000006000830152602082019050919050565b611b9b81611e1d565b82525050565b6000602082019050611bb660008301846118b6565b92915050565b60006020820190508181036000830152611bd681846118c5565b905092915050565b60006020820190508181036000830152611bf7816119ac565b9050919050565b60006020820190508181036000830152611c17816119ec565b9050919050565b60006020820190508181036000830152611c3781611a52565b9050919050565b60006020820190508181036000830152611c5781611a92565b9050919050565b60006020820190508181036000830152611c7781611ad2565b9050919050565b60006020820190508181036000830152611c9781611b12565b9050919050565b60006020820190508181036000830152611cb781611b52565b9050919050565b6000602082019050611cd36000830184611b92565b92915050565b6000608082019050611cee6000830187611b92565b8181036020830152611d008186611973565b90508181036040830152611d148185611973565b9050611d2360608301846118b6565b95945050505050565b6000604051905081810181811067ffffffffffffffff82111715611d4f57600080fd5b8060405250919050565b600067ffffffffffffffff821115611d7057600080fd5b601f19601f8301169050602081019050919050565b6000819050602082019050919050565b600081519050919050565b600081519050919050565b6000602082019050919050565b600082825260208201905092915050565b600082825260208201905092915050565b600082825260208201905092915050565b6000611df682611dfd565b9050919050565b600073ffffffffffffffffffffffffffffffffffffffff82169050919050565b6000819050919050565b82818337600083830152505050565b60005b83811015611e54578082015181840152602081019050611e39565b83811115611e63576000848401525b50505050565b6000601f19601f8301169050919050565b611e8381611deb565b8114611e8e57600080fd5b50565b611e9a81611e1d565b8114611ea557600080fd5b5056fea264697066735822122041aefae0f70f823dff078e73b5b6c6561372261c67a3b675fe50145f021f426064736f6c63430006080033",
  "source": "pragma solidity ^0.6.0;\npragma experimental ABIEncoderV2;\n\nimport \"@openzeppelin/contracts/access/Ownable.sol\";\nimport \"./Roles.sol\";\n\n\ncontract MediChain is Ownable {\n    // instance of Patient\n    struct Patient {\n        uint256 pid;\n        string patientName;\n        string patientSex;\n        address patientAddress;\n        string[] patientRecords; // The ipfs hashes of all the documents related to patient's condition\n        address[] medicalViewers; // The addresses of all the medical people who can access the patient details\n    }\n\n    uint256 public patientCount = 0;\n\n    // Roles involved, later add medical representatives and other medical bodies\n    Roles.Role private doctors;\n\n    // datastructure mapping id to patent(like hashmap)\n    mapping(uint256 => Patient) public idToPatient;\n\n    modifier onlyDoctor(uint256 pid) {\n        require(Roles.has(doctors, msg.sender), \"You are not a doctor\"); // checks if the sender of the transaction is really a doctor\n\n        // checks if the doctor has permission to access the records\n        Patient memory patient = idToPatient[pid];\n        bool access = false;\n        for (uint256 i = 0; i < patient.medicalViewers.length; i++) {\n            if (patient.medicalViewers[i] == msg.sender) {\n                access = true;\n                break;\n            }\n        }\n        require(access, \"You don't have access\");\n        _;\n    }\n\n    modifier onlyPatient(uint256 pid) {\n        // checks if the sender of transaction is the owner of patient with id (pid)\n        require(\n            idToPatient[pid].patientAddress == msg.sender,\n            \"You are not authorised\"\n        );\n        _;\n    }\n\n    // events to be emitted\n    event patientRegistered(uint256 _patientId);\n    event recordAdded(string message);\n    event doctorAddedToPatient(string message);\n    event sendIpfsHashes(string[] hashes);\n\n    // adding doctors to the contract instance, only owner of the contract can access this function. The owner is the address which deployed the contract\n    function addDoctor(address _docAddress) public onlyOwner {\n        Roles.add(doctors, _docAddress);\n    }\n\n    // Registering patient instance\n    function registerPatient(\n        string memory _patientName,\n        string memory _patientSex\n    ) public {\n        Patient memory patient;\n        patient.pid = patientCount;\n        patient.patientName = _patientName;\n        patient.patientSex = _patientSex;\n        patient.patientAddress = msg.sender;\n\n        idToPatient[patientCount] = patient;\n\n        // emitting event with patient id\n        emit patientRegistered(patientCount);\n\n        patientCount++;\n    }\n\n    // Allowing patients to add their ipfshash of medical records\n    function addRecords(uint256 pid, string memory _ipfsHash)\n        public\n        onlyPatient(pid)\n    {\n        Patient storage patient = idToPatient[pid];\n        patient.patientRecords.push(_ipfsHash);\n\n        emit recordAdded(\"Record added\");\n    }\n\n    // Allowing patients to add the address of their doctors, so that these doctors can later access their records\n    function addDoctorToPatient(uint256 pid, address _docAddress)\n        public\n        onlyPatient(pid)\n    {\n        Patient storage patient = idToPatient[pid];\n        patient.medicalViewers.push(_docAddress);\n\n        emit doctorAddedToPatient(\"Doctor added to patient\");\n    }\n\n    function viewRecords(uint256 pid)\n        public\n        view\n        onlyDoctor(pid)\n        returns (string[] memory)\n    {\n        // only doctor added by patient can access this function\n        Patient memory patient = idToPatient[pid];\n        return patient.patientRecords;\n    }\n}\n",
  "sourcePath": "/home/asish/Desktop/medichain/contracts/MediChain.sol",
  "compiler": {
    "name": "solc",
    "version": "0.6.8+commit.0bbfe453.Emscripten.clang"
  },
  "schemaVersion": "3.0.23",
  "updatedAt": "2020-05-26T11:03:35.679Z",
  "networkType": "ethereum",
  "devdoc": {
    "methods": {
      "owner()": {
        "details": "Returns the address of the current owner."
      },
      "renounceOwnership()": {
        "details": "Leaves the contract without owner. It will not be possible to call `onlyOwner` functions anymore. Can only be called by the current owner.     * NOTE: Renouncing ownership will leave the contract without an owner, thereby removing any functionality that is only available to the owner."
      },
      "transferOwnership(address)": {
        "details": "Transfers ownership of the contract to a new account (`newOwner`). Can only be called by the current owner."
      }
    }
  },
  "userdoc": {
    "methods": {}
  }
}