{
  "contractName": "MediChain",
  "abi": [
    {
      "anonymous": false,
      "inputs": [
        {
          "indexed": true,
          "internalType": "address",
          "name": "previousOwner",
          "type": "address"
        },
        {
          "indexed": true,
          "internalType": "address",
          "name": "newOwner",
          "type": "address"
        }
      ],
      "name": "OwnershipTransferred",
      "type": "event"
    },
    {
      "anonymous": false,
      "inputs": [
        {
          "indexed": false,
          "internalType": "string",
          "name": "message",
          "type": "string"
        }
      ],
      "name": "doctorAddedToPatient",
      "type": "event"
    },
    {
      "anonymous": false,
      "inputs": [
        {
          "indexed": false,
          "internalType": "uint256",
          "name": "_patientId",
          "type": "uint256"
        }
      ],
      "name": "patientRegistered",
      "type": "event"
    },
    {
      "anonymous": false,
      "inputs": [
        {
          "indexed": false,
          "internalType": "string",
          "name": "message",
          "type": "string"
        }
      ],
      "name": "recordAdded",
      "type": "event"
    },
    {
      "anonymous": false,
      "inputs": [
        {
          "indexed": false,
          "internalType": "string[]",
          "name": "hashes",
          "type": "string[]"
        }
      ],
      "name": "sendIpfsHashes",
      "type": "event"
    },
    {
      "inputs": [],
      "name": "owner",
      "outputs": [
        {
          "internalType": "address",
          "name": "",
          "type": "address"
        }
      ],
      "stateMutability": "view",
      "type": "function"
    },
    {
      "inputs": [],
      "name": "renounceOwnership",
      "outputs": [],
      "stateMutability": "nonpayable",
      "type": "function"
    },
    {
      "inputs": [
        {
          "internalType": "address",
          "name": "newOwner",
          "type": "address"
        }
      ],
      "name": "transferOwnership",
      "outputs": [],
      "stateMutability": "nonpayable",
      "type": "function"
    },
    {
      "inputs": [
        {
          "internalType": "address",
          "name": "_docAddress",
          "type": "address"
        }
      ],
      "name": "addDoctor",
      "outputs": [],
      "stateMutability": "nonpayable",
      "type": "function"
    },
    {
      "inputs": [
        {
          "internalType": "string",
          "name": "_patientName",
          "type": "string"
        },
        {
          "internalType": "string",
          "name": "_patientSex",
          "type": "string"
        }
      ],
      "name": "registerPatient",
      "outputs": [],
      "stateMutability": "nonpayable",
      "type": "function"
    },
    {
      "inputs": [
        {
          "internalType": "uint256",
          "name": "pid",
          "type": "uint256"
        },
        {
          "internalType": "string",
          "name": "_ipfsHash",
          "type": "string"
        }
      ],
      "name": "addRecords",
      "outputs": [],
      "stateMutability": "nonpayable",
      "type": "function"
    },
    {
      "inputs": [
        {
          "internalType": "uint256",
          "name": "pid",
          "type": "uint256"
        },
        {
          "internalType": "address",
          "name": "_docAddress",
          "type": "address"
        }
      ],
      "name": "addDoctorToPatient",
      "outputs": [],
      "stateMutability": "nonpayable",
      "type": "function"
    },
    {
      "inputs": [
        {
          "internalType": "uint256",
          "name": "pid",
          "type": "uint256"
        }
      ],
      "name": "viewRecords",
      "outputs": [
        {
          "internalType": "string[]",
          "name": "",
          "type": "string[]"
        }
      ],
      "stateMutability": "view",
      "type": "function"
    }
  ],
  "bytecode": "0x6080604052600060015534801561001557600080fd5b5060006100266100c960201b60201c565b9050806000806101000a81548173ffffffffffffffffffffffffffffffffffffffff021916908373ffffffffffffffffffffffffffffffffffffffff1602179055508073ffffffffffffffffffffffffffffffffffffffff16600073ffffffffffffffffffffffffffffffffffffffff167f8be0079c531659141344cd1fd0a4f28419497f9722a3daafe3b4186f6b6457e060405160405180910390a3506100d1565b600033905090565b611c65806100e06000396000f3fe608060405234801561001057600080fd5b50600436106100885760003560e01c80638c0452841161005b5780638c045284146100eb5780638da5cb5b1461011b578063d5b7a68a14610139578063f2fde38b1461015557610088565b80633dc25c591461008d5780634780468f146100a9578063715018a6146100c557806380911fa4146100cf575b600080fd5b6100a760048036038101906100a29190611661565b610171565b005b6100c360048036038101906100be9190611567565b6102a6565b005b6100cd61034a565b005b6100e960048036038101906100e49190611590565b61049f565b005b610105600480360381019061010091906115fc565b61062b565b6040516101129190611996565b60405180910390f35b610123610dc8565b604051610130919061197b565b60405180910390f35b610153600480360381019061014e9190611625565b610df1565b005b61016f600480360381019061016a9190611567565b610f4d565b005b813373ffffffffffffffffffffffffffffffffffffffff166003600083815260200190815260200160002060030160009054906101000a900473ffffffffffffffffffffffffffffffffffffffff1673ffffffffffffffffffffffffffffffffffffffff1614610216576040517f08c379a000000000000000000000000000000000000000000000000000000000815260040161020d906119f8565b60405180910390fd5b6000600360008581526020019081526020016000209050806004018390806001815401808255809150506001900390600052602060002001600090919091909150908051906020019061026a929190611257565b507ffe620bc934605c29eaad60c10c2b0a05598a653a91a4c87e25362d3aa7eae68860405161029890611a18565b60405180910390a150505050565b6102ae611111565b73ffffffffffffffffffffffffffffffffffffffff166000809054906101000a900473ffffffffffffffffffffffffffffffffffffffff1673ffffffffffffffffffffffffffffffffffffffff161461033c576040517f08c379a000000000000000000000000000000000000000000000000000000000815260040161033390611a58565b60405180910390fd5b610347600282611119565b50565b610352611111565b73ffffffffffffffffffffffffffffffffffffffff166000809054906101000a900473ffffffffffffffffffffffffffffffffffffffff1673ffffffffffffffffffffffffffffffffffffffff16146103e0576040517f08c379a00000000000000000000000000000000000000000000000000000000081526004016103d790611a58565b60405180910390fd5b600073ffffffffffffffffffffffffffffffffffffffff166000809054906101000a900473ffffffffffffffffffffffffffffffffffffffff1673ffffffffffffffffffffffffffffffffffffffff167f8be0079c531659141344cd1fd0a4f28419497f9722a3daafe3b4186f6b6457e060405160405180910390a360008060006101000a81548173ffffffffffffffffffffffffffffffffffffffff021916908373ffffffffffffffffffffffffffffffffffffffff160217905550565b6104a76112d7565b60015481600001818152505082816020018190525081816040018190525033816060019073ffffffffffffffffffffffffffffffffffffffff16908173ffffffffffffffffffffffffffffffffffffffff168152505080600360006001548152602001908152602001600020600082015181600001556020820151816001019080519060200190610539929190611257565b506040820151816002019080519060200190610556929190611257565b5060608201518160030160006101000a81548173ffffffffffffffffffffffffffffffffffffffff021916908373ffffffffffffffffffffffffffffffffffffffff16021790555060808201518160040190805190602001906105ba929190611323565b5060a08201518160050190805190602001906105d7929190611383565b509050507f97a88e9b8b274762d65e2ac0206ababe9d1ae5bde620477ed37ba349f792045660015460405161060c9190611a98565b60405180910390a1600160008154809291906001019190505550505050565b6060816106396002336111c5565b610678576040517f08c379a000000000000000000000000000000000000000000000000000000000815260040161066f90611a78565b60405180910390fd5b6106806112d7565b600360008381526020019081526020016000206040518060c001604052908160008201548152602001600182018054600181600116156101000203166002900480601f0160208091040260200160405190810160405280929190818152602001828054600181600116156101000203166002900480156107415780601f1061071657610100808354040283529160200191610741565b820191906000526020600020905b81548152906001019060200180831161072457829003601f168201915b50505050508152602001600282018054600181600116156101000203166002900480601f0160208091040260200160405190810160405280929190818152602001828054600181600116156101000203166002900480156107e35780601f106107b8576101008083540402835291602001916107e3565b820191906000526020600020905b8154815290600101906020018083116107c657829003601f168201915b505050505081526020016003820160009054906101000a900473ffffffffffffffffffffffffffffffffffffffff1673ffffffffffffffffffffffffffffffffffffffff1673ffffffffffffffffffffffffffffffffffffffff16815260200160048201805480602002602001604051908101604052809291908181526020016000905b82821015610923578382906000526020600020018054600181600116156101000203166002900480601f01602080910402602001604051908101604052809291908181526020018280546001816001161561010002031660029004801561090f5780601f106108e45761010080835404028352916020019161090f565b820191906000526020600020905b8154815290600101906020018083116108f257829003601f168201915b505050505081526020019060010190610867565b505050508152602001600582018054806020026020016040519081016040528092919081815260200182805480156109b057602002820191906000526020600020905b8160009054906101000a900473ffffffffffffffffffffffffffffffffffffffff1673ffffffffffffffffffffffffffffffffffffffff1681526020019060010190808311610966575b5050505050815250509050600080905060008090505b8260a0015151811015610a34573373ffffffffffffffffffffffffffffffffffffffff168360a0015182815181106109fa57fe5b602002602001015173ffffffffffffffffffffffffffffffffffffffff161415610a275760019150610a34565b80806001019150506109c6565b5080610a75576040517f08c379a0000000000000000000000000000000000000000000000000000000008152600401610a6c906119b8565b60405180910390fd5b610a7d6112d7565b600360008781526020019081526020016000206040518060c001604052908160008201548152602001600182018054600181600116156101000203166002900480601f016020809104026020016040519081016040528092919081815260200182805460018160011615610100020316600290048015610b3e5780601f10610b1357610100808354040283529160200191610b3e565b820191906000526020600020905b815481529060010190602001808311610b2157829003601f168201915b50505050508152602001600282018054600181600116156101000203166002900480601f016020809104026020016040519081016040528092919081815260200182805460018160011615610100020316600290048015610be05780601f10610bb557610100808354040283529160200191610be0565b820191906000526020600020905b815481529060010190602001808311610bc357829003601f168201915b505050505081526020016003820160009054906101000a900473ffffffffffffffffffffffffffffffffffffffff1673ffffffffffffffffffffffffffffffffffffffff1673ffffffffffffffffffffffffffffffffffffffff16815260200160048201805480602002602001604051908101604052809291908181526020016000905b82821015610d20578382906000526020600020018054600181600116156101000203166002900480601f016020809104026020016040519081016040528092919081815260200182805460018160011615610100020316600290048015610d0c5780601f10610ce157610100808354040283529160200191610d0c565b820191906000526020600020905b815481529060010190602001808311610cef57829003601f168201915b505050505081526020019060010190610c64565b50505050815260200160058201805480602002602001604051908101604052809291908181526020018280548015610dad57602002820191906000526020600020905b8160009054906101000a900473ffffffffffffffffffffffffffffffffffffffff1673ffffffffffffffffffffffffffffffffffffffff1681526020019060010190808311610d63575b50505050508152505090508060800151945050505050919050565b60008060009054906101000a900473ffffffffffffffffffffffffffffffffffffffff16905090565b813373ffffffffffffffffffffffffffffffffffffffff166003600083815260200190815260200160002060030160009054906101000a900473ffffffffffffffffffffffffffffffffffffffff1673ffffffffffffffffffffffffffffffffffffffff1614610e96576040517f08c379a0000000000000000000000000000000000000000000000000000000008152600401610e8d906119f8565b60405180910390fd5b600060036000858152602001908152602001600020905080600501839080600181540180825580915050600190039060005260206000200160009091909190916101000a81548173ffffffffffffffffffffffffffffffffffffffff021916908373ffffffffffffffffffffffffffffffffffffffff1602179055507fd908eed969dc2472401fdde95d7c8b09aba1250d7fb5ee7294282b603d00efd4604051610f3f90611a38565b60405180910390a150505050565b610f55611111565b73ffffffffffffffffffffffffffffffffffffffff166000809054906101000a900473ffffffffffffffffffffffffffffffffffffffff1673ffffffffffffffffffffffffffffffffffffffff1614610fe3576040517f08c379a0000000000000000000000000000000000000000000000000000000008152600401610fda90611a58565b60405180910390fd5b600073ffffffffffffffffffffffffffffffffffffffff168173ffffffffffffffffffffffffffffffffffffffff161415611053576040517f08c379a000000000000000000000000000000000000000000000000000000000815260040161104a906119d8565b60405180910390fd5b8073ffffffffffffffffffffffffffffffffffffffff166000809054906101000a900473ffffffffffffffffffffffffffffffffffffffff1673ffffffffffffffffffffffffffffffffffffffff167f8be0079c531659141344cd1fd0a4f28419497f9722a3daafe3b4186f6b6457e060405160405180910390a3806000806101000a81548173ffffffffffffffffffffffffffffffffffffffff021916908373ffffffffffffffffffffffffffffffffffffffff16021790555050565b600033905090565b600073ffffffffffffffffffffffffffffffffffffffff168173ffffffffffffffffffffffffffffffffffffffff16141561115357600080fd5b61115d82826111c5565b1561116757600080fd5b60018260000160008373ffffffffffffffffffffffffffffffffffffffff1673ffffffffffffffffffffffffffffffffffffffff16815260200190815260200160002060006101000a81548160ff0219169083151502179055505050565b60008073ffffffffffffffffffffffffffffffffffffffff168273ffffffffffffffffffffffffffffffffffffffff16141561120057600080fd5b8260000160008373ffffffffffffffffffffffffffffffffffffffff1673ffffffffffffffffffffffffffffffffffffffff16815260200190815260200160002060009054906101000a900460ff16905092915050565b828054600181600116156101000203166002900490600052602060002090601f016020900481019282601f1061129857805160ff19168380011785556112c6565b828001600101855582156112c6579182015b828111156112c55782518255916020019190600101906112aa565b5b5090506112d3919061140d565b5090565b6040518060c00160405280600081526020016060815260200160608152602001600073ffffffffffffffffffffffffffffffffffffffff16815260200160608152602001606081525090565b828054828255906000526020600020908101928215611372579160200282015b82811115611371578251829080519060200190611361929190611257565b5091602001919060010190611343565b5b50905061137f9190611432565b5090565b8280548282559060005260206000209081019282156113fc579160200282015b828111156113fb5782518260006101000a81548173ffffffffffffffffffffffffffffffffffffffff021916908373ffffffffffffffffffffffffffffffffffffffff160217905550916020019190600101906113a3565b5b509050611409919061145e565b5090565b61142f91905b8082111561142b576000816000905550600101611413565b5090565b90565b61145b91905b80821115611457576000818161144e91906114a1565b50600101611438565b5090565b90565b61149e91905b8082111561149a57600081816101000a81549073ffffffffffffffffffffffffffffffffffffffff021916905550600101611464565b5090565b90565b50805460018160011615610100020316600290046000825580601f106114c757506114e6565b601f0160209004906000526020600020908101906114e5919061140d565b5b50565b6000813590506114f881611c01565b92915050565b600082601f83011261150f57600080fd5b813561152261151d82611ae0565b611ab3565b9150808252602083016020830185838301111561153e57600080fd5b611549838284611bae565b50505092915050565b60008135905061156181611c18565b92915050565b60006020828403121561157957600080fd5b6000611587848285016114e9565b91505092915050565b600080604083850312156115a357600080fd5b600083013567ffffffffffffffff8111156115bd57600080fd5b6115c9858286016114fe565b925050602083013567ffffffffffffffff8111156115e657600080fd5b6115f2858286016114fe565b9150509250929050565b60006020828403121561160e57600080fd5b600061161c84828501611552565b91505092915050565b6000806040838503121561163857600080fd5b600061164685828601611552565b9250506020611657858286016114e9565b9150509250929050565b6000806040838503121561167457600080fd5b600061168285828601611552565b925050602083013567ffffffffffffffff81111561169f57600080fd5b6116ab858286016114fe565b9150509250929050565b60006116c1838361174d565b905092915050565b6116d281611b72565b82525050565b60006116e382611b1c565b6116ed8185611b3f565b9350836020820285016116ff85611b0c565b8060005b8581101561173b578484038952815161171c85826116b5565b945061172783611b32565b925060208a01995050600181019050611703565b50829750879550505050505092915050565b600061175882611b27565b6117628185611b50565b9350611772818560208601611bbd565b61177b81611bf0565b840191505092915050565b6000611793601583611b61565b91507f596f7520646f6e277420686176652061636365737300000000000000000000006000830152602082019050919050565b60006117d3602683611b61565b91507f4f776e61626c653a206e6577206f776e657220697320746865207a65726f206160008301527f64647265737300000000000000000000000000000000000000000000000000006020830152604082019050919050565b6000611839601683611b61565b91507f596f7520617265206e6f7420617574686f7269736564000000000000000000006000830152602082019050919050565b6000611879600c83611b61565b91507f5265636f726420616464656400000000000000000000000000000000000000006000830152602082019050919050565b60006118b9601783611b61565b91507f446f63746f7220616464656420746f2070617469656e740000000000000000006000830152602082019050919050565b60006118f9602083611b61565b91507f4f776e61626c653a2063616c6c6572206973206e6f7420746865206f776e65726000830152602082019050919050565b6000611939601483611b61565b91507f596f7520617265206e6f74206120646f63746f720000000000000000000000006000830152602082019050919050565b61197581611ba4565b82525050565b600060208201905061199060008301846116c9565b92915050565b600060208201905081810360008301526119b081846116d8565b905092915050565b600060208201905081810360008301526119d181611786565b9050919050565b600060208201905081810360008301526119f1816117c6565b9050919050565b60006020820190508181036000830152611a118161182c565b9050919050565b60006020820190508181036000830152611a318161186c565b9050919050565b60006020820190508181036000830152611a51816118ac565b9050919050565b60006020820190508181036000830152611a71816118ec565b9050919050565b60006020820190508181036000830152611a918161192c565b9050919050565b6000602082019050611aad600083018461196c565b92915050565b6000604051905081810181811067ffffffffffffffff82111715611ad657600080fd5b8060405250919050565b600067ffffffffffffffff821115611af757600080fd5b601f19601f8301169050602081019050919050565b6000819050602082019050919050565b600081519050919050565b600081519050919050565b6000602082019050919050565b600082825260208201905092915050565b600082825260208201905092915050565b600082825260208201905092915050565b6000611b7d82611b84565b9050919050565b600073ffffffffffffffffffffffffffffffffffffffff82169050919050565b6000819050919050565b82818337600083830152505050565b60005b83811015611bdb578082015181840152602081019050611bc0565b83811115611bea576000848401525b50505050565b6000601f19601f8301169050919050565b611c0a81611b72565b8114611c1557600080fd5b50565b611c2181611ba4565b8114611c2c57600080fd5b5056fea264697066735822122011a499377cea88f8241e3c018f1e32089f065b2baf5f81cdab1c6e167996629064736f6c63430006080033",
  "source": "pragma solidity ^0.6.0;\npragma experimental ABIEncoderV2;\n\nimport \"@openzeppelin/contracts/access/Ownable.sol\";\nimport \"./Roles.sol\";\n\n\ncontract MediChain is Ownable {\n    // instance of Patient\n    struct Patient {\n        uint256 pid;\n        string patientName;\n        string patientSex;\n        address patientAddress;\n        string[] patientRecords; // The ipfs hashes of all the documents related to patient's condition\n        address[] medicalViewers; // The addresses of all the medical people who can access the patient details\n    }\n\n    uint256 private patientCount = 0;\n\n    // Roles involved, later add medical representatives and other medical bodies\n    Roles.Role private doctors;\n\n    // datastructure mapping id to patent(like hashmap)\n    mapping(uint256 => Patient) idToPatient;\n\n    modifier onlyDoctor(uint256 pid) {\n        require(Roles.has(doctors, msg.sender), \"You are not a doctor\"); // checks if the sender of the transaction is really a doctor\n\n        // checks if the doctor has permission to access the records\n        Patient memory patient = idToPatient[pid];\n        bool access = false;\n        for (uint256 i = 0; i < patient.medicalViewers.length; i++) {\n            if (patient.medicalViewers[i] == msg.sender) {\n                access = true;\n                break;\n            }\n        }\n        require(access, \"You don't have access\");\n        _;\n    }\n\n    modifier onlyPatient(uint256 pid) {\n        // checks if the sender of transaction is the owner of patient with id (pid)\n        require(\n            idToPatient[pid].patientAddress == msg.sender,\n            \"You are not authorised\"\n        );\n        _;\n    }\n\n    // events to be emitted\n    event patientRegistered(uint256 _patientId);\n    event recordAdded(string message);\n    event doctorAddedToPatient(string message);\n    event sendIpfsHashes(string[] hashes);\n\n    // adding doctors to the contract instance, only owner of the contract can access this function. The owner is the address which deployed the contract\n    function addDoctor(address _docAddress) public onlyOwner {\n        Roles.add(doctors, _docAddress);\n    }\n\n    // Registering patient instance\n    function registerPatient(\n        string memory _patientName,\n        string memory _patientSex\n    ) public {\n        Patient memory patient;\n        patient.pid = patientCount;\n        patient.patientName = _patientName;\n        patient.patientSex = _patientSex;\n        patient.patientAddress = msg.sender;\n\n        idToPatient[patientCount] = patient;\n\n        // emitting event with patient id\n        emit patientRegistered(patientCount);\n\n        patientCount++;\n    }\n\n    // Allowing patients to add their ipfshash of medical records\n    function addRecords(uint256 pid, string memory _ipfsHash)\n        public\n        onlyPatient(pid)\n    {\n        Patient storage patient = idToPatient[pid];\n        patient.patientRecords.push(_ipfsHash);\n\n        emit recordAdded(\"Record added\");\n    }\n\n    // Allowing patients to add the address of their doctors, so that these doctors can later access their records\n    function addDoctorToPatient(uint256 pid, address _docAddress)\n        public\n        onlyPatient(pid)\n    {\n        Patient storage patient = idToPatient[pid];\n        patient.medicalViewers.push(_docAddress);\n\n        emit doctorAddedToPatient(\"Doctor added to patient\");\n    }\n\n    function viewRecords(uint256 pid)\n        public\n        view\n        onlyDoctor(pid)\n        returns (string[] memory)\n    {\n        // only doctor added by patient can access this function\n        Patient memory patient = idToPatient[pid];\n        return patient.patientRecords;\n    }\n}\n",
  "sourcePath": "/home/asish/Desktop/medichain/contracts/MediChain.sol",
  "compiler": {
    "name": "solc",
    "version": "0.6.8+commit.0bbfe453.Emscripten.clang"
  },
  "schemaVersion": "3.0.23",
  "updatedAt": "2020-05-26T10:47:09.681Z",
  "devdoc": {
    "methods": {
      "owner()": {
        "details": "Returns the address of the current owner."
      },
      "renounceOwnership()": {
        "details": "Leaves the contract without owner. It will not be possible to call `onlyOwner` functions anymore. Can only be called by the current owner.     * NOTE: Renouncing ownership will leave the contract without an owner, thereby removing any functionality that is only available to the owner."
      },
      "transferOwnership(address)": {
        "details": "Transfers ownership of the contract to a new account (`newOwner`). Can only be called by the current owner."
      }
    }
  },
  "userdoc": {
    "methods": {}
  }
}